{
  "contractName": "SaiToken",
  "abi": [
    {
      "inputs": [
        {
          "internalType": "uint256",
          "name": "totalSupply_",
          "type": "uint256"
        }
      ],
      "stateMutability": "nonpayable",
      "type": "constructor"
    },
    {
      "anonymous": false,
      "inputs": [
        {
          "indexed": true,
          "internalType": "address",
          "name": "owner",
          "type": "address"
        },
        {
          "indexed": true,
          "internalType": "address",
          "name": "spender",
          "type": "address"
        },
        {
          "indexed": false,
          "internalType": "uint256",
          "name": "value",
          "type": "uint256"
        }
      ],
      "name": "Approval",
      "type": "event"
    },
    {
      "anonymous": false,
      "inputs": [
        {
          "indexed": true,
          "internalType": "address",
          "name": "from",
          "type": "address"
        },
        {
          "indexed": true,
          "internalType": "address",
          "name": "to",
          "type": "address"
        },
        {
          "indexed": false,
          "internalType": "uint256",
          "name": "value",
          "type": "uint256"
        }
      ],
      "name": "Transfer",
      "type": "event"
    },
    {
      "inputs": [],
      "name": "INITIAL_SUPPLY",
      "outputs": [
        {
          "internalType": "uint256",
          "name": "",
          "type": "uint256"
        }
      ],
      "stateMutability": "view",
      "type": "function",
      "constant": true
    },
    {
      "inputs": [
        {
          "internalType": "address",
          "name": "owner",
          "type": "address"
        },
        {
          "internalType": "address",
          "name": "spender",
          "type": "address"
        }
      ],
      "name": "allowance",
      "outputs": [
        {
          "internalType": "uint256",
          "name": "",
          "type": "uint256"
        }
      ],
      "stateMutability": "view",
      "type": "function",
      "constant": true
    },
    {
      "inputs": [
        {
          "internalType": "address",
          "name": "spender",
          "type": "address"
        },
        {
          "internalType": "uint256",
          "name": "amount",
          "type": "uint256"
        }
      ],
      "name": "approve",
      "outputs": [
        {
          "internalType": "bool",
          "name": "",
          "type": "bool"
        }
      ],
      "stateMutability": "nonpayable",
      "type": "function"
    },
    {
      "inputs": [
        {
          "internalType": "address",
          "name": "account",
          "type": "address"
        }
      ],
      "name": "balanceOf",
      "outputs": [
        {
          "internalType": "uint256",
          "name": "",
          "type": "uint256"
        }
      ],
      "stateMutability": "view",
      "type": "function",
      "constant": true
    },
    {
      "inputs": [],
      "name": "decimals",
      "outputs": [
        {
          "internalType": "uint8",
          "name": "",
          "type": "uint8"
        }
      ],
      "stateMutability": "view",
      "type": "function",
      "constant": true
    },
    {
      "inputs": [
        {
          "internalType": "address",
          "name": "spender",
          "type": "address"
        },
        {
          "internalType": "uint256",
          "name": "subtractedValue",
          "type": "uint256"
        }
      ],
      "name": "decreaseAllowance",
      "outputs": [
        {
          "internalType": "bool",
          "name": "",
          "type": "bool"
        }
      ],
      "stateMutability": "nonpayable",
      "type": "function"
    },
    {
      "inputs": [
        {
          "internalType": "address",
          "name": "spender",
          "type": "address"
        },
        {
          "internalType": "uint256",
          "name": "addedValue",
          "type": "uint256"
        }
      ],
      "name": "increaseAllowance",
      "outputs": [
        {
          "internalType": "bool",
          "name": "",
          "type": "bool"
        }
      ],
      "stateMutability": "nonpayable",
      "type": "function"
    },
    {
      "inputs": [],
      "name": "name",
      "outputs": [
        {
          "internalType": "string",
          "name": "",
          "type": "string"
        }
      ],
      "stateMutability": "view",
      "type": "function",
      "constant": true
    },
    {
      "inputs": [],
      "name": "symbol",
      "outputs": [
        {
          "internalType": "string",
          "name": "",
          "type": "string"
        }
      ],
      "stateMutability": "view",
      "type": "function",
      "constant": true
    },
    {
      "inputs": [],
      "name": "tokenDecimals",
      "outputs": [
        {
          "internalType": "uint8",
          "name": "",
          "type": "uint8"
        }
      ],
      "stateMutability": "view",
      "type": "function",
      "constant": true
    },
    {
      "inputs": [],
      "name": "tokenName",
      "outputs": [
        {
          "internalType": "string",
          "name": "",
          "type": "string"
        }
      ],
      "stateMutability": "view",
      "type": "function",
      "constant": true
    },
    {
      "inputs": [],
      "name": "tokenSymbol",
      "outputs": [
        {
          "internalType": "string",
          "name": "",
          "type": "string"
        }
      ],
      "stateMutability": "view",
      "type": "function",
      "constant": true
    },
    {
      "inputs": [],
      "name": "totalSupply",
      "outputs": [
        {
          "internalType": "uint256",
          "name": "",
          "type": "uint256"
        }
      ],
      "stateMutability": "view",
      "type": "function",
      "constant": true
    },
    {
      "inputs": [
        {
          "internalType": "address",
          "name": "recipient",
          "type": "address"
        },
        {
          "internalType": "uint256",
          "name": "amount",
          "type": "uint256"
        }
      ],
      "name": "transfer",
      "outputs": [
        {
          "internalType": "bool",
          "name": "",
          "type": "bool"
        }
      ],
      "stateMutability": "nonpayable",
      "type": "function"
    },
    {
      "inputs": [
        {
          "internalType": "address",
          "name": "sender",
          "type": "address"
        },
        {
          "internalType": "address",
          "name": "recipient",
          "type": "address"
        },
        {
          "internalType": "uint256",
          "name": "amount",
          "type": "uint256"
        }
      ],
      "name": "transferFrom",
      "outputs": [
        {
          "internalType": "bool",
          "name": "",
          "type": "bool"
        }
      ],
      "stateMutability": "nonpayable",
      "type": "function"
    }
  ],
  "bytecode": "0x60806040526040518060400160405280601481526020017f53616920537461626c65636f696e2028534149290000000000000000000000008152506005908051906020019062000051929190620003d3565b506040518060400160405280600381526020017f5341490000000000000000000000000000000000000000000000000000000000815250600690805190602001906200009f929190620003d3565b506012600760006101000a81548160ff021916908360ff160217905550348015620000c957600080fd5b5060405162001c8938038062001c898339818101604052810190620000ef91906200049a565b60058054620000fe90620005bb565b80601f01602080910402602001604051908101604052809291908181526020018280546200012c90620005bb565b80156200017d5780601f1062000151576101008083540402835291602001916200017d565b820191906000526020600020905b8154815290600101906020018083116200015f57829003601f168201915b5050505050600680546200019190620005bb565b80601f0160208091040260200160405190810160405280929190818152602001828054620001bf90620005bb565b8015620002105780601f10620001e45761010080835404028352916020019162000210565b820191906000526020600020905b815481529060010190602001808311620001f257829003601f168201915b505050505081600390805190602001906200022d929190620003d3565b50806004908051906020019062000246929190620003d3565b505050806008819055506200026233826200026960201b60201c565b5062000697565b600073ffffffffffffffffffffffffffffffffffffffff168273ffffffffffffffffffffffffffffffffffffffff161415620002dc576040517f08c379a0000000000000000000000000000000000000000000000000000000008152600401620002d39062000504565b60405180910390fd5b620002f060008383620003ce60201b60201c565b806002600082825462000304919062000554565b92505081905550806000808473ffffffffffffffffffffffffffffffffffffffff1673ffffffffffffffffffffffffffffffffffffffff16815260200190815260200160002060008282546200035b919062000554565b925050819055508173ffffffffffffffffffffffffffffffffffffffff16600073ffffffffffffffffffffffffffffffffffffffff167fddf252ad1be2c89b69c2b068fc378daa952ba7f163c4a11628f55a4df523b3ef83604051620003c2919062000526565b60405180910390a35050565b505050565b828054620003e190620005bb565b90600052602060002090601f01602090048101928262000405576000855562000451565b82601f106200042057805160ff191683800117855562000451565b8280016001018555821562000451579182015b828111156200045057825182559160200191906001019062000433565b5b50905062000460919062000464565b5090565b5b808211156200047f57600081600090555060010162000465565b5090565b60008151905062000494816200067d565b92915050565b600060208284031215620004b357620004b26200064f565b5b6000620004c38482850162000483565b91505092915050565b6000620004db601f8362000543565b9150620004e88262000654565b602082019050919050565b620004fe81620005b1565b82525050565b600060208201905081810360008301526200051f81620004cc565b9050919050565b60006020820190506200053d6000830184620004f3565b92915050565b600082825260208201905092915050565b60006200056182620005b1565b91506200056e83620005b1565b9250827fffffffffffffffffffffffffffffffffffffffffffffffffffffffffffffffff03821115620005a657620005a5620005f1565b5b828201905092915050565b6000819050919050565b60006002820490506001821680620005d457607f821691505b60208210811415620005eb57620005ea62000620565b5b50919050565b7f4e487b7100000000000000000000000000000000000000000000000000000000600052601160045260246000fd5b7f4e487b7100000000000000000000000000000000000000000000000000000000600052602260045260246000fd5b600080fd5b7f45524332303a206d696e7420746f20746865207a65726f206164647265737300600082015250565b6200068881620005b1565b81146200069457600080fd5b50565b6115e280620006a76000396000f3fe608060405234801561001057600080fd5b50600436106100f55760003560e01c80633b97e8561161009757806395d89b411161006657806395d89b411461028c578063a457c2d7146102aa578063a9059cbb146102da578063dd62ed3e1461030a576100f5565b80633b97e856146102025780636c02a9311461022057806370a082311461023e5780637b61c3201461026e576100f5565b806323b872dd116100d357806323b872dd146101665780632ff2e9dc14610196578063313ce567146101b457806339509351146101d2576100f5565b806306fdde03146100fa578063095ea7b31461011857806318160ddd14610148575b600080fd5b61010261033a565b60405161010f9190611049565b60405180910390f35b610132600480360381019061012d9190610e93565b6103cc565b60405161013f919061102e565b60405180910390f35b6101506103ea565b60405161015d919061114b565b60405180910390f35b610180600480360381019061017b9190610e40565b6103f4565b60405161018d919061102e565b60405180910390f35b61019e6104f5565b6040516101ab919061114b565b60405180910390f35b6101bc6104fb565b6040516101c99190611166565b60405180910390f35b6101ec60048036038101906101e79190610e93565b610504565b6040516101f9919061102e565b60405180910390f35b61020a6105b0565b6040516102179190611166565b60405180910390f35b6102286105c3565b6040516102359190611049565b60405180910390f35b61025860048036038101906102539190610dd3565b610651565b604051610265919061114b565b60405180910390f35b610276610699565b6040516102839190611049565b60405180910390f35b610294610727565b6040516102a19190611049565b60405180910390f35b6102c460048036038101906102bf9190610e93565b6107b9565b6040516102d1919061102e565b60405180910390f35b6102f460048036038101906102ef9190610e93565b6108ad565b604051610301919061102e565b60405180910390f35b610324600480360381019061031f9190610e00565b6108cb565b604051610331919061114b565b60405180910390f35b606060038054610349906112af565b80601f0160208091040260200160405190810160405280929190818152602001828054610375906112af565b80156103c25780601f10610397576101008083540402835291602001916103c2565b820191906000526020600020905b8154815290600101906020018083116103a557829003601f168201915b5050505050905090565b60006103e06103d9610952565b848461095a565b6001905092915050565b6000600254905090565b6000610401848484610b25565b6000600160008673ffffffffffffffffffffffffffffffffffffffff1673ffffffffffffffffffffffffffffffffffffffff168152602001908152602001600020600061044c610952565b73ffffffffffffffffffffffffffffffffffffffff1673ffffffffffffffffffffffffffffffffffffffff168152602001908152602001600020549050828110156104cc576040517f08c379a00000000000000000000000000000000000000000000000000000000081526004016104c3906110cb565b60405180910390fd5b6104e9856104d8610952565b85846104e491906111f3565b61095a565b60019150509392505050565b60085481565b60006012905090565b60006105a6610511610952565b84846001600061051f610952565b73ffffffffffffffffffffffffffffffffffffffff1673ffffffffffffffffffffffffffffffffffffffff16815260200190815260200160002060008873ffffffffffffffffffffffffffffffffffffffff1673ffffffffffffffffffffffffffffffffffffffff168152602001908152602001600020546105a1919061119d565b61095a565b6001905092915050565b600760009054906101000a900460ff1681565b600580546105d0906112af565b80601f01602080910402602001604051908101604052809291908181526020018280546105fc906112af565b80156106495780601f1061061e57610100808354040283529160200191610649565b820191906000526020600020905b81548152906001019060200180831161062c57829003601f168201915b505050505081565b60008060008373ffffffffffffffffffffffffffffffffffffffff1673ffffffffffffffffffffffffffffffffffffffff168152602001908152602001600020549050919050565b600680546106a6906112af565b80601f01602080910402602001604051908101604052809291908181526020018280546106d2906112af565b801561071f5780601f106106f45761010080835404028352916020019161071f565b820191906000526020600020905b81548152906001019060200180831161070257829003601f168201915b505050505081565b606060048054610736906112af565b80601f0160208091040260200160405190810160405280929190818152602001828054610762906112af565b80156107af5780601f10610784576101008083540402835291602001916107af565b820191906000526020600020905b81548152906001019060200180831161079257829003601f168201915b5050505050905090565b600080600160006107c8610952565b73ffffffffffffffffffffffffffffffffffffffff1673ffffffffffffffffffffffffffffffffffffffff16815260200190815260200160002060008573ffffffffffffffffffffffffffffffffffffffff1673ffffffffffffffffffffffffffffffffffffffff16815260200190815260200160002054905082811015610885576040517f08c379a000000000000000000000000000000000000000000000000000000000815260040161087c9061112b565b60405180910390fd5b6108a2610890610952565b85858461089d91906111f3565b61095a565b600191505092915050565b60006108c16108ba610952565b8484610b25565b6001905092915050565b6000600160008473ffffffffffffffffffffffffffffffffffffffff1673ffffffffffffffffffffffffffffffffffffffff16815260200190815260200160002060008373ffffffffffffffffffffffffffffffffffffffff1673ffffffffffffffffffffffffffffffffffffffff16815260200190815260200160002054905092915050565b600033905090565b600073ffffffffffffffffffffffffffffffffffffffff168373ffffffffffffffffffffffffffffffffffffffff1614156109ca576040517f08c379a00000000000000000000000000000000000000000000000000000000081526004016109c19061110b565b60405180910390fd5b600073ffffffffffffffffffffffffffffffffffffffff168273ffffffffffffffffffffffffffffffffffffffff161415610a3a576040517f08c379a0000000000000000000000000000000000000000000000000000000008152600401610a319061108b565b60405180910390fd5b80600160008573ffffffffffffffffffffffffffffffffffffffff1673ffffffffffffffffffffffffffffffffffffffff16815260200190815260200160002060008473ffffffffffffffffffffffffffffffffffffffff1673ffffffffffffffffffffffffffffffffffffffff168152602001908152602001600020819055508173ffffffffffffffffffffffffffffffffffffffff168373ffffffffffffffffffffffffffffffffffffffff167f8c5be1e5ebec7d5bd14f71427d1e84f3dd0314c0f7b2291e5b200ac8c7c3b92583604051610b18919061114b565b60405180910390a3505050565b600073ffffffffffffffffffffffffffffffffffffffff168373ffffffffffffffffffffffffffffffffffffffff161415610b95576040517f08c379a0000000000000000000000000000000000000000000000000000000008152600401610b8c906110eb565b60405180910390fd5b600073ffffffffffffffffffffffffffffffffffffffff168273ffffffffffffffffffffffffffffffffffffffff161415610c05576040517f08c379a0000000000000000000000000000000000000000000000000000000008152600401610bfc9061106b565b60405180910390fd5b610c10838383610da4565b60008060008573ffffffffffffffffffffffffffffffffffffffff1673ffffffffffffffffffffffffffffffffffffffff16815260200190815260200160002054905081811015610c96576040517f08c379a0000000000000000000000000000000000000000000000000000000008152600401610c8d906110ab565b60405180910390fd5b8181610ca291906111f3565b6000808673ffffffffffffffffffffffffffffffffffffffff1673ffffffffffffffffffffffffffffffffffffffff16815260200190815260200160002081905550816000808573ffffffffffffffffffffffffffffffffffffffff1673ffffffffffffffffffffffffffffffffffffffff1681526020019081526020016000206000828254610d32919061119d565b925050819055508273ffffffffffffffffffffffffffffffffffffffff168473ffffffffffffffffffffffffffffffffffffffff167fddf252ad1be2c89b69c2b068fc378daa952ba7f163c4a11628f55a4df523b3ef84604051610d96919061114b565b60405180910390a350505050565b505050565b600081359050610db88161157e565b92915050565b600081359050610dcd81611595565b92915050565b600060208284031215610de957610de861133f565b5b6000610df784828501610da9565b91505092915050565b60008060408385031215610e1757610e1661133f565b5b6000610e2585828601610da9565b9250506020610e3685828601610da9565b9150509250929050565b600080600060608486031215610e5957610e5861133f565b5b6000610e6786828701610da9565b9350506020610e7886828701610da9565b9250506040610e8986828701610dbe565b9150509250925092565b60008060408385031215610eaa57610ea961133f565b5b6000610eb885828601610da9565b9250506020610ec985828601610dbe565b9150509250929050565b610edc81611239565b82525050565b6000610eed82611181565b610ef7818561118c565b9350610f0781856020860161127c565b610f1081611344565b840191505092915050565b6000610f2860238361118c565b9150610f3382611355565b604082019050919050565b6000610f4b60228361118c565b9150610f56826113a4565b604082019050919050565b6000610f6e60268361118c565b9150610f79826113f3565b604082019050919050565b6000610f9160288361118c565b9150610f9c82611442565b604082019050919050565b6000610fb460258361118c565b9150610fbf82611491565b604082019050919050565b6000610fd760248361118c565b9150610fe2826114e0565b604082019050919050565b6000610ffa60258361118c565b91506110058261152f565b604082019050919050565b61101981611265565b82525050565b6110288161126f565b82525050565b60006020820190506110436000830184610ed3565b92915050565b600060208201905081810360008301526110638184610ee2565b905092915050565b6000602082019050818103600083015261108481610f1b565b9050919050565b600060208201905081810360008301526110a481610f3e565b9050919050565b600060208201905081810360008301526110c481610f61565b9050919050565b600060208201905081810360008301526110e481610f84565b9050919050565b6000602082019050818103600083015261110481610fa7565b9050919050565b6000602082019050818103600083015261112481610fca565b9050919050565b6000602082019050818103600083015261114481610fed565b9050919050565b60006020820190506111606000830184611010565b92915050565b600060208201905061117b600083018461101f565b92915050565b600081519050919050565b600082825260208201905092915050565b60006111a882611265565b91506111b383611265565b9250827fffffffffffffffffffffffffffffffffffffffffffffffffffffffffffffffff038211156111e8576111e76112e1565b5b828201905092915050565b60006111fe82611265565b915061120983611265565b92508282101561121c5761121b6112e1565b5b828203905092915050565b600061123282611245565b9050919050565b60008115159050919050565b600073ffffffffffffffffffffffffffffffffffffffff82169050919050565b6000819050919050565b600060ff82169050919050565b60005b8381101561129a57808201518184015260208101905061127f565b838111156112a9576000848401525b50505050565b600060028204905060018216806112c757607f821691505b602082108114156112db576112da611310565b5b50919050565b7f4e487b7100000000000000000000000000000000000000000000000000000000600052601160045260246000fd5b7f4e487b7100000000000000000000000000000000000000000000000000000000600052602260045260246000fd5b600080fd5b6000601f19601f8301169050919050565b7f45524332303a207472616e7366657220746f20746865207a65726f206164647260008201527f6573730000000000000000000000000000000000000000000000000000000000602082015250565b7f45524332303a20617070726f766520746f20746865207a65726f20616464726560008201527f7373000000000000000000000000000000000000000000000000000000000000602082015250565b7f45524332303a207472616e7366657220616d6f756e742065786365656473206260008201527f616c616e63650000000000000000000000000000000000000000000000000000602082015250565b7f45524332303a207472616e7366657220616d6f756e742065786365656473206160008201527f6c6c6f77616e6365000000000000000000000000000000000000000000000000602082015250565b7f45524332303a207472616e736665722066726f6d20746865207a65726f20616460008201527f6472657373000000000000000000000000000000000000000000000000000000602082015250565b7f45524332303a20617070726f76652066726f6d20746865207a65726f2061646460008201527f7265737300000000000000000000000000000000000000000000000000000000602082015250565b7f45524332303a2064656372656173656420616c6c6f77616e63652062656c6f7760008201527f207a65726f000000000000000000000000000000000000000000000000000000602082015250565b61158781611227565b811461159257600080fd5b50565b61159e81611265565b81146115a957600080fd5b5056fea26469706673582212200d84da82ca5871febb38a686a0444c252cca653bef17ad4f0687d8ef37c6569e64736f6c63430008050033",
  "immutableReferences": {},
  "source": "// SPDX-License-Identifier: GPL-3.0\r\n\r\npragma solidity >=0.7.0 <0.9.0;\r\n\r\nimport \"@openzeppelin/contracts/token/ERC20/ERC20.sol\";\r\n\r\n// import './DaiToken/ERC20Mintable.sol';\r\n\r\ncontract SaiToken is ERC20 {\r\n    string public tokenName = \"Sai Stablecoin (SAI)\";\r\n    string public tokenSymbol = \"SAI\";\r\n    uint8 public tokenDecimals = 18;\r\n    // uint256 public INITIAL_SUPPLY = 12000;\r\n    uint256 public INITIAL_SUPPLY ;\r\n\r\n    constructor(uint256 totalSupply_) ERC20(tokenName, tokenSymbol) {\r\n        INITIAL_SUPPLY = totalSupply_;\r\n        _mint(msg.sender, totalSupply_);\r\n    }\r\n}\r\n",
  "sourcePath": "G:/Workspaces_Github/Workspace_Blockchain/Sai_Marketplace/satya-eth-marketplace/contracts/SaiToken.sol",
  "compiler": {
    "name": "solc",
    "version": "0.8.5+commit.a4f2e591.Emscripten.clang"
  },
  "schemaVersion": "3.4.1",
  "updatedAt": "2021-06-15T09:59:09.484Z",
  "networkType": "ethereum",
  "devdoc": {
    "kind": "dev",
    "methods": {
      "allowance(address,address)": {
        "details": "See {IERC20-allowance}."
      },
      "approve(address,uint256)": {
        "details": "See {IERC20-approve}. Requirements: - `spender` cannot be the zero address."
      },
      "balanceOf(address)": {
        "details": "See {IERC20-balanceOf}."
      },
      "decimals()": {
        "details": "Returns the number of decimals used to get its user representation. For example, if `decimals` equals `2`, a balance of `505` tokens should be displayed to a user as `5,05` (`505 / 10 ** 2`). Tokens usually opt for a value of 18, imitating the relationship between Ether and Wei. This is the value {ERC20} uses, unless this function is overridden; NOTE: This information is only used for _display_ purposes: it in no way affects any of the arithmetic of the contract, including {IERC20-balanceOf} and {IERC20-transfer}."
      },
      "decreaseAllowance(address,uint256)": {
        "details": "Atomically decreases the allowance granted to `spender` by the caller. This is an alternative to {approve} that can be used as a mitigation for problems described in {IERC20-approve}. Emits an {Approval} event indicating the updated allowance. Requirements: - `spender` cannot be the zero address. - `spender` must have allowance for the caller of at least `subtractedValue`."
      },
      "increaseAllowance(address,uint256)": {
        "details": "Atomically increases the allowance granted to `spender` by the caller. This is an alternative to {approve} that can be used as a mitigation for problems described in {IERC20-approve}. Emits an {Approval} event indicating the updated allowance. Requirements: - `spender` cannot be the zero address."
      },
      "name()": {
        "details": "Returns the name of the token."
      },
      "symbol()": {
        "details": "Returns the symbol of the token, usually a shorter version of the name."
      },
      "totalSupply()": {
        "details": "See {IERC20-totalSupply}."
      },
      "transfer(address,uint256)": {
        "details": "See {IERC20-transfer}. Requirements: - `recipient` cannot be the zero address. - the caller must have a balance of at least `amount`."
      },
      "transferFrom(address,address,uint256)": {
        "details": "See {IERC20-transferFrom}. Emits an {Approval} event indicating the updated allowance. This is not required by the EIP. See the note at the beginning of {ERC20}. Requirements: - `sender` and `recipient` cannot be the zero address. - `sender` must have a balance of at least `amount`. - the caller must have allowance for ``sender``'s tokens of at least `amount`."
      }
    },
    "version": 1
  },
  "userdoc": {
    "kind": "user",
    "methods": {},
    "version": 1
  }
}